{
  "_format": "hh-sol-artifact-1",
  "contractName": "FlightDelayInsurance",
  "sourceName": "contracts/FlightDelayInsurance.sol",
  "abi": [
    {
      "inputs": [],
      "stateMutability": "nonpayable",
      "type": "constructor"
    },
    {
      "anonymous": false,
      "inputs": [
        {
          "indexed": true,
          "internalType": "address",
          "name": "payer",
          "type": "address"
        },
        {
          "indexed": false,
          "internalType": "uint256",
          "name": "amount",
          "type": "uint256"
        }
      ],
      "name": "InsurancePaid",
      "type": "event"
    },
    {
      "anonymous": false,
      "inputs": [
        {
          "indexed": true,
          "internalType": "address",
          "name": "recipient",
          "type": "address"
        },
        {
          "indexed": false,
          "internalType": "uint256",
          "name": "amount",
          "type": "uint256"
        }
      ],
      "name": "PayoutWithdrawn",
      "type": "event"
    },
    {
      "inputs": [],
      "name": "owner",
      "outputs": [
        {
          "internalType": "address",
          "name": "",
          "type": "address"
        }
      ],
      "stateMutability": "view",
      "type": "function"
    },
    {
      "inputs": [],
      "name": "payForInsurance",
      "outputs": [],
      "stateMutability": "payable",
      "type": "function"
    },
    {
      "inputs": [
        {
          "internalType": "uint256",
          "name": "",
          "type": "uint256"
        }
      ],
      "name": "payments",
      "outputs": [
        {
          "internalType": "address",
          "name": "payer",
          "type": "address"
        },
        {
          "internalType": "uint256",
          "name": "amount",
          "type": "uint256"
        },
        {
          "internalType": "bool",
          "name": "isPayout",
          "type": "bool"
        }
      ],
      "stateMutability": "view",
      "type": "function"
    },
    {
      "inputs": [
        {
          "internalType": "address payable",
          "name": "recipient",
          "type": "address"
        },
        {
          "internalType": "uint256",
          "name": "amount",
          "type": "uint256"
        }
      ],
      "name": "withdrawPayout",
      "outputs": [],
      "stateMutability": "nonpayable",
      "type": "function"
    },
    {
      "stateMutability": "payable",
      "type": "receive"
    }
  ],
  "bytecode": "0x608060405234801561001057600080fd5b50336000806101000a81548173ffffffffffffffffffffffffffffffffffffffff021916908373ffffffffffffffffffffffffffffffffffffffff160217905550610887806100606000396000f3fe6080604052600436106100435760003560e01c8063161d07701461004f57806383ecaaf71461007857806387d81789146100825780638da5cb5b146100c15761004a565b3661004a57005b600080fd5b34801561005b57600080fd5b50610076600480360381019061007191906105b1565b6100ec565b005b610080610328565b005b34801561008e57600080fd5b506100a960048036038101906100a491906105f1565b61048d565b6040516100b893929190610669565b60405180910390f35b3480156100cd57600080fd5b506100d66104f4565b6040516100e391906106a0565b60405180910390f35b60008054906101000a900473ffffffffffffffffffffffffffffffffffffffff1673ffffffffffffffffffffffffffffffffffffffff163373ffffffffffffffffffffffffffffffffffffffff161461017a576040517f08c379a00000000000000000000000000000000000000000000000000000000081526004016101719061073e565b60405180910390fd5b804710156101bd576040517f08c379a00000000000000000000000000000000000000000000000000000000081526004016101b4906107aa565b60405180910390fd5b600160405180606001604052808473ffffffffffffffffffffffffffffffffffffffff16815260200183815260200160011515815250908060018154018082558091505060019003906000526020600020906003020160009091909190915060008201518160000160006101000a81548173ffffffffffffffffffffffffffffffffffffffff021916908373ffffffffffffffffffffffffffffffffffffffff1602179055506020820151816001015560408201518160020160006101000a81548160ff02191690831515021790555050508173ffffffffffffffffffffffffffffffffffffffff166108fc829081150290604051600060405180830381858888f193505050501580156102d5573d6000803e3d6000fd5b508173ffffffffffffffffffffffffffffffffffffffff167faa916bb7738886447c333e8803dd7d94e5fcb6acb2f5d5aa6502373dd59dc55b8260405161031c91906107ca565b60405180910390a25050565b6000341161036b576040517f08c379a000000000000000000000000000000000000000000000000000000000815260040161036290610831565b60405180910390fd5b600160405180606001604052803373ffffffffffffffffffffffffffffffffffffffff16815260200134815260200160001515815250908060018154018082558091505060019003906000526020600020906003020160009091909190915060008201518160000160006101000a81548173ffffffffffffffffffffffffffffffffffffffff021916908373ffffffffffffffffffffffffffffffffffffffff1602179055506020820151816001015560408201518160020160006101000a81548160ff02191690831515021790555050503373ffffffffffffffffffffffffffffffffffffffff167fa976db6a1ab2b2119ca95cf2715193b8b35e6834d94eb5a3647ca8d6d2314b4b3460405161048391906107ca565b60405180910390a2565b6001818154811061049d57600080fd5b90600052602060002090600302016000915090508060000160009054906101000a900473ffffffffffffffffffffffffffffffffffffffff16908060010154908060020160009054906101000a900460ff16905083565b60008054906101000a900473ffffffffffffffffffffffffffffffffffffffff1681565b600080fd5b600073ffffffffffffffffffffffffffffffffffffffff82169050919050565b60006105488261051d565b9050919050565b6105588161053d565b811461056357600080fd5b50565b6000813590506105758161054f565b92915050565b6000819050919050565b61058e8161057b565b811461059957600080fd5b50565b6000813590506105ab81610585565b92915050565b600080604083850312156105c8576105c7610518565b5b60006105d685828601610566565b92505060206105e78582860161059c565b9150509250929050565b60006020828403121561060757610606610518565b5b60006106158482850161059c565b91505092915050565b60006106298261051d565b9050919050565b6106398161061e565b82525050565b6106488161057b565b82525050565b60008115159050919050565b6106638161064e565b82525050565b600060608201905061067e6000830186610630565b61068b602083018561063f565b610698604083018461065a565b949350505050565b60006020820190506106b56000830184610630565b92915050565b600082825260208201905092915050565b7f4f6e6c79206f776e65722063616e2063616c6c20746869732066756e6374696f60008201527f6e00000000000000000000000000000000000000000000000000000000000000602082015250565b60006107286021836106bb565b9150610733826106cc565b604082019050919050565b600060208201905081810360008301526107578161071b565b9050919050565b7f496e73756666696369656e7420636f6e74726163742062616c616e6365000000600082015250565b6000610794601d836106bb565b915061079f8261075e565b602082019050919050565b600060208201905081810360008301526107c381610787565b9050919050565b60006020820190506107df600083018461063f565b92915050565b7f5061796d656e74206d7573742062652067726561746572207468616e20300000600082015250565b600061081b601e836106bb565b9150610826826107e5565b602082019050919050565b6000602082019050818103600083015261084a8161080e565b905091905056fea264697066735822122018a2c26ebf3129e309af396cf2cf3d8bd167ee9dd3ce30c6d6823e4bed48636264736f6c63430008120033",
  "linkReferences": {},
  "deployedLinkReferences": {}
}