{
  "contractName": "FlightDelay",
  "abi": [
    {
      "inputs": [],
      "stateMutability": "nonpayable",
      "type": "constructor"
    },
    {
      "anonymous": false,
      "inputs": [
        {
          "indexed": true,
          "internalType": "address",
          "name": "payer",
          "type": "address"
        },
        {
          "indexed": false,
          "internalType": "uint256",
          "name": "amount",
          "type": "uint256"
        }
      ],
      "name": "InsurancePaid",
      "type": "event"
    },
    {
      "anonymous": false,
      "inputs": [
        {
          "indexed": true,
          "internalType": "address",
          "name": "recipient",
          "type": "address"
        },
        {
          "indexed": false,
          "internalType": "uint256",
          "name": "amount",
          "type": "uint256"
        }
      ],
      "name": "PayoutWithdrawn",
      "type": "event"
    },
    {
      "inputs": [],
      "name": "owner",
      "outputs": [
        {
          "internalType": "address",
          "name": "",
          "type": "address"
        }
      ],
      "stateMutability": "view",
      "type": "function"
    },
    {
      "inputs": [
        {
          "internalType": "uint256",
          "name": "",
          "type": "uint256"
        }
      ],
      "name": "payments",
      "outputs": [
        {
          "internalType": "address",
          "name": "payer",
          "type": "address"
        },
        {
          "internalType": "uint256",
          "name": "amount",
          "type": "uint256"
        },
        {
          "internalType": "bool",
          "name": "isPayout",
          "type": "bool"
        }
      ],
      "stateMutability": "view",
      "type": "function"
    },
    {
      "stateMutability": "payable",
      "type": "receive"
    },
    {
      "inputs": [],
      "name": "payForInsurance",
      "outputs": [],
      "stateMutability": "payable",
      "type": "function"
    },
    {
      "inputs": [
        {
          "internalType": "address payable",
          "name": "recipient",
          "type": "address"
        },
        {
          "internalType": "uint256",
          "name": "amount",
          "type": "uint256"
        }
      ],
      "name": "withdrawPayout",
      "outputs": [],
      "stateMutability": "nonpayable",
      "type": "function"
    }
  ],
  "bytecode": "0x608060405234801561001057600080fd5b50600080546001600160a01b0319163317905561050e806100326000396000f3fe6080604052600436106100435760003560e01c8063161d07701461004f57806383ecaaf71461007157806387d81789146100795780638da5cb5b146100c557600080fd5b3661004a57005b600080fd5b34801561005b57600080fd5b5061006f61006a366004610487565b6100fd565b005b61006f6102f6565b34801561008557600080fd5b506100996100943660046104bf565b610447565b604080516001600160a01b03909416845260208401929092521515908201526060015b60405180910390f35b3480156100d157600080fd5b506000546100e5906001600160a01b031681565b6040516001600160a01b0390911681526020016100bc565b6000546001600160a01b031633146101665760405162461bcd60e51b815260206004820152602160248201527f4f6e6c79206f776e65722063616e2063616c6c20746869732066756e6374696f6044820152603760f91b60648201526084015b60405180910390fd5b804710156101b65760405162461bcd60e51b815260206004820152601d60248201527f496e73756666696369656e7420636f6e74726163742062616c616e6365000000604482015260640161015d565b604080516060810182526001600160a01b0384811680835260208301858152600184860181815281548083018355600092835295517fb10e2d527612073b26eecdfd717e6a320cf44b4afac2b0732d9fcbe2b7fa0cf6600390970296870180546001600160a01b031916919096161790945590517fb10e2d527612073b26eecdfd717e6a320cf44b4afac2b0732d9fcbe2b7fa0cf785015591517fb10e2d527612073b26eecdfd717e6a320cf44b4afac2b0732d9fcbe2b7fa0cf8909301805460ff191693151593909317909255915190916108fc841502918491818181858888f193505050501580156102ae573d6000803e3d6000fd5b50816001600160a01b03167faa916bb7738886447c333e8803dd7d94e5fcb6acb2f5d5aa6502373dd59dc55b826040516102ea91815260200190565b60405180910390a25050565b600034116103465760405162461bcd60e51b815260206004820152601e60248201527f5061796d656e74206d7573742062652067726561746572207468616e20300000604482015260640161015d565b60408051606081018252338082523460208084018281526000858701818152600180548082018255925295517fb10e2d527612073b26eecdfd717e6a320cf44b4afac2b0732d9fcbe2b7fa0cf6600390920291820180546001600160a01b0319166001600160a01b0390921691909117905590517fb10e2d527612073b26eecdfd717e6a320cf44b4afac2b0732d9fcbe2b7fa0cf782015593517fb10e2d527612073b26eecdfd717e6a320cf44b4afac2b0732d9fcbe2b7fa0cf8909401805460ff1916941515949094179093559251928352917fa976db6a1ab2b2119ca95cf2715193b8b35e6834d94eb5a3647ca8d6d2314b4b910160405180910390a2565b6001818154811061045757600080fd5b60009182526020909120600390910201805460018201546002909201546001600160a01b03909116925060ff1683565b6000806040838503121561049a57600080fd5b82356001600160a01b03811681146104b157600080fd5b946020939093013593505050565b6000602082840312156104d157600080fd5b503591905056fea26469706673582212203a48f898ae7a34d94480307c068d87eb91dd1ec43f04a4eaed2f99e50dfd2b9864736f6c63430008120033",
  "immutableReferences": {},
  "source": "// SPDX-License-Identifier: MIT\npragma solidity ^0.8.18;\n\ncontract FlightDelay {\n    address public owner;\n\n    struct Payment {\n        address payer;\n        uint256 amount;\n        bool isPayout;\n    }\n\n    Payment[] public payments;\n\n    event InsurancePaid(address indexed payer, uint256 amount);\n    event PayoutWithdrawn(address indexed recipient, uint256 amount);\n\n    modifier onlyOwner() {\n        require(msg.sender == owner, \"Only owner can call this function\");\n        _;\n    }\n\n    constructor() {\n        owner = msg.sender;\n    }\n\n    function payForInsurance() public payable {\n        require(msg.value > 0, \"Payment must be greater than 0\");\n\n        payments.push(Payment({\n            payer: msg.sender,\n            amount: msg.value,\n            isPayout: false\n        }));\n\n        emit InsurancePaid(msg.sender, msg.value);\n    }\n\n    function withdrawPayout(address payable recipient, uint256 amount) public onlyOwner {\n        require(address(this).balance >= amount, \"Insufficient contract balance\");\n\n        payments.push(Payment({\n            payer: recipient,\n            amount: amount,\n            isPayout: true\n        }));\n\n        recipient.transfer(amount);\n        emit PayoutWithdrawn(recipient, amount);\n    }\n\n    receive() external payable {}\n}\n",
  "sourcePath": "/home/benjamin/web3/flight/smart-contract/contracts/FlightDelay.sol",
  "compiler": {
    "name": "solc",
    "version": "0.8.18+commit.87f61d96.Emscripten.clang"
  },
  "schemaVersion": "3.4.16",
  "updatedAt": "2024-06-19T07:46:50.698Z",
  "devdoc": {
    "kind": "dev",
    "methods": {},
    "version": 1
  },
  "userdoc": {
    "kind": "user",
    "methods": {},
    "version": 1
  }
}